{
  "_format": "hh-sol-artifact-1",
  "contractName": "MyNFT",
  "sourceName": "contracts/MyNFT.sol",
  "abi": [
    {
      "inputs": [
        {
          "internalType": "string",
          "name": "_name",
          "type": "string"
        },
        {
          "internalType": "string",
          "name": "_symbol",
          "type": "string"
        },
        {
          "internalType": "address",
          "name": "_royaltyReceiver",
          "type": "address"
        },
        {
          "internalType": "uint96",
          "name": "_royaltyFeeBps",
          "type": "uint96"
        }
      ],
      "stateMutability": "nonpayable",
      "type": "constructor"
    },
    {
      "inputs": [
        {
          "internalType": "uint256",
          "name": "numerator",
          "type": "uint256"
        },
        {
          "internalType": "uint256",
          "name": "denominator",
          "type": "uint256"
        }
      ],
      "name": "ERC2981InvalidDefaultRoyalty",
      "type": "error"
    },
    {
      "inputs": [
        {
          "internalType": "address",
          "name": "receiver",
          "type": "address"
        }
      ],
      "name": "ERC2981InvalidDefaultRoyaltyReceiver",
      "type": "error"
    },
    {
      "inputs": [
        {
          "internalType": "uint256",
          "name": "tokenId",
          "type": "uint256"
        },
        {
          "internalType": "uint256",
          "name": "numerator",
          "type": "uint256"
        },
        {
          "internalType": "uint256",
          "name": "denominator",
          "type": "uint256"
        }
      ],
      "name": "ERC2981InvalidTokenRoyalty",
      "type": "error"
    },
    {
      "inputs": [
        {
          "internalType": "uint256",
          "name": "tokenId",
          "type": "uint256"
        },
        {
          "internalType": "address",
          "name": "receiver",
          "type": "address"
        }
      ],
      "name": "ERC2981InvalidTokenRoyaltyReceiver",
      "type": "error"
    },
    {
      "inputs": [
        {
          "internalType": "address",
          "name": "sender",
          "type": "address"
        },
        {
          "internalType": "uint256",
          "name": "tokenId",
          "type": "uint256"
        },
        {
          "internalType": "address",
          "name": "owner",
          "type": "address"
        }
      ],
      "name": "ERC721IncorrectOwner",
      "type": "error"
    },
    {
      "inputs": [
        {
          "internalType": "address",
          "name": "operator",
          "type": "address"
        },
        {
          "internalType": "uint256",
          "name": "tokenId",
          "type": "uint256"
        }
      ],
      "name": "ERC721InsufficientApproval",
      "type": "error"
    },
    {
      "inputs": [
        {
          "internalType": "address",
          "name": "approver",
          "type": "address"
        }
      ],
      "name": "ERC721InvalidApprover",
      "type": "error"
    },
    {
      "inputs": [
        {
          "internalType": "address",
          "name": "operator",
          "type": "address"
        }
      ],
      "name": "ERC721InvalidOperator",
      "type": "error"
    },
    {
      "inputs": [
        {
          "internalType": "address",
          "name": "owner",
          "type": "address"
        }
      ],
      "name": "ERC721InvalidOwner",
      "type": "error"
    },
    {
      "inputs": [
        {
          "internalType": "address",
          "name": "receiver",
          "type": "address"
        }
      ],
      "name": "ERC721InvalidReceiver",
      "type": "error"
    },
    {
      "inputs": [
        {
          "internalType": "address",
          "name": "sender",
          "type": "address"
        }
      ],
      "name": "ERC721InvalidSender",
      "type": "error"
    },
    {
      "inputs": [
        {
          "internalType": "uint256",
          "name": "tokenId",
          "type": "uint256"
        }
      ],
      "name": "ERC721NonexistentToken",
      "type": "error"
    },
    {
      "inputs": [
        {
          "internalType": "address",
          "name": "owner",
          "type": "address"
        }
      ],
      "name": "OwnableInvalidOwner",
      "type": "error"
    },
    {
      "inputs": [
        {
          "internalType": "address",
          "name": "account",
          "type": "address"
        }
      ],
      "name": "OwnableUnauthorizedAccount",
      "type": "error"
    },
    {
      "anonymous": false,
      "inputs": [
        {
          "indexed": true,
          "internalType": "address",
          "name": "owner",
          "type": "address"
        },
        {
          "indexed": true,
          "internalType": "address",
          "name": "approved",
          "type": "address"
        },
        {
          "indexed": true,
          "internalType": "uint256",
          "name": "tokenId",
          "type": "uint256"
        }
      ],
      "name": "Approval",
      "type": "event"
    },
    {
      "anonymous": false,
      "inputs": [
        {
          "indexed": true,
          "internalType": "address",
          "name": "owner",
          "type": "address"
        },
        {
          "indexed": true,
          "internalType": "address",
          "name": "operator",
          "type": "address"
        },
        {
          "indexed": false,
          "internalType": "bool",
          "name": "approved",
          "type": "bool"
        }
      ],
      "name": "ApprovalForAll",
      "type": "event"
    },
    {
      "anonymous": false,
      "inputs": [
        {
          "indexed": false,
          "internalType": "uint256",
          "name": "_fromTokenId",
          "type": "uint256"
        },
        {
          "indexed": false,
          "internalType": "uint256",
          "name": "_toTokenId",
          "type": "uint256"
        }
      ],
      "name": "BatchMetadataUpdate",
      "type": "event"
    },
    {
      "anonymous": false,
      "inputs": [
        {
          "indexed": false,
          "internalType": "uint256",
          "name": "_tokenId",
          "type": "uint256"
        }
      ],
      "name": "MetadataUpdate",
      "type": "event"
    },
    {
      "anonymous": false,
      "inputs": [
        {
          "indexed": true,
          "internalType": "address",
          "name": "previousOwner",
          "type": "address"
        },
        {
          "indexed": true,
          "internalType": "address",
          "name": "newOwner",
          "type": "address"
        }
      ],
      "name": "OwnershipTransferred",
      "type": "event"
    },
    {
      "anonymous": false,
      "inputs": [
        {
          "indexed": true,
          "internalType": "address",
          "name": "from",
          "type": "address"
        },
        {
          "indexed": true,
          "internalType": "address",
          "name": "to",
          "type": "address"
        },
        {
          "indexed": true,
          "internalType": "uint256",
          "name": "tokenId",
          "type": "uint256"
        }
      ],
      "name": "Transfer",
      "type": "event"
    },
    {
      "inputs": [
        {
          "internalType": "address",
          "name": "to",
          "type": "address"
        },
        {
          "internalType": "uint256",
          "name": "tokenId",
          "type": "uint256"
        }
      ],
      "name": "approve",
      "outputs": [],
      "stateMutability": "nonpayable",
      "type": "function"
    },
    {
      "inputs": [
        {
          "internalType": "address",
          "name": "owner",
          "type": "address"
        }
      ],
      "name": "balanceOf",
      "outputs": [
        {
          "internalType": "uint256",
          "name": "",
          "type": "uint256"
        }
      ],
      "stateMutability": "view",
      "type": "function"
    },
    {
      "inputs": [],
      "name": "baseTokenURI",
      "outputs": [
        {
          "internalType": "string",
          "name": "",
          "type": "string"
        }
      ],
      "stateMutability": "view",
      "type": "function"
    },
    {
      "inputs": [],
      "name": "deleteDefaultRoyalty",
      "outputs": [],
      "stateMutability": "nonpayable",
      "type": "function"
    },
    {
      "inputs": [
        {
          "internalType": "uint256",
          "name": "tokenId",
          "type": "uint256"
        }
      ],
      "name": "getApproved",
      "outputs": [
        {
          "internalType": "address",
          "name": "",
          "type": "address"
        }
      ],
      "stateMutability": "view",
      "type": "function"
    },
    {
      "inputs": [
        {
          "internalType": "address",
          "name": "owner",
          "type": "address"
        },
        {
          "internalType": "address",
          "name": "operator",
          "type": "address"
        }
      ],
      "name": "isApprovedForAll",
      "outputs": [
        {
          "internalType": "bool",
          "name": "",
          "type": "bool"
        }
      ],
      "stateMutability": "view",
      "type": "function"
    },
    {
      "inputs": [
        {
          "internalType": "address",
          "name": "to",
          "type": "address"
        },
        {
          "internalType": "string",
          "name": "uri",
          "type": "string"
        }
      ],
      "name": "mint",
      "outputs": [
        {
          "internalType": "uint256",
          "name": "",
          "type": "uint256"
        }
      ],
      "stateMutability": "nonpayable",
      "type": "function"
    },
    {
      "inputs": [],
      "name": "name",
      "outputs": [
        {
          "internalType": "string",
          "name": "",
          "type": "string"
        }
      ],
      "stateMutability": "view",
      "type": "function"
    },
    {
      "inputs": [],
      "name": "owner",
      "outputs": [
        {
          "internalType": "address",
          "name": "",
          "type": "address"
        }
      ],
      "stateMutability": "view",
      "type": "function"
    },
    {
      "inputs": [
        {
          "internalType": "uint256",
          "name": "tokenId",
          "type": "uint256"
        }
      ],
      "name": "ownerOf",
      "outputs": [
        {
          "internalType": "address",
          "name": "",
          "type": "address"
        }
      ],
      "stateMutability": "view",
      "type": "function"
    },
    {
      "inputs": [],
      "name": "renounceOwnership",
      "outputs": [],
      "stateMutability": "nonpayable",
      "type": "function"
    },
    {
      "inputs": [
        {
          "internalType": "uint256",
          "name": "tokenId",
          "type": "uint256"
        },
        {
          "internalType": "uint256",
          "name": "salePrice",
          "type": "uint256"
        }
      ],
      "name": "royaltyInfo",
      "outputs": [
        {
          "internalType": "address",
          "name": "receiver",
          "type": "address"
        },
        {
          "internalType": "uint256",
          "name": "amount",
          "type": "uint256"
        }
      ],
      "stateMutability": "view",
      "type": "function"
    },
    {
      "inputs": [
        {
          "internalType": "address",
          "name": "from",
          "type": "address"
        },
        {
          "internalType": "address",
          "name": "to",
          "type": "address"
        },
        {
          "internalType": "uint256",
          "name": "tokenId",
          "type": "uint256"
        }
      ],
      "name": "safeTransferFrom",
      "outputs": [],
      "stateMutability": "nonpayable",
      "type": "function"
    },
    {
      "inputs": [
        {
          "internalType": "address",
          "name": "from",
          "type": "address"
        },
        {
          "internalType": "address",
          "name": "to",
          "type": "address"
        },
        {
          "internalType": "uint256",
          "name": "tokenId",
          "type": "uint256"
        },
        {
          "internalType": "bytes",
          "name": "data",
          "type": "bytes"
        }
      ],
      "name": "safeTransferFrom",
      "outputs": [],
      "stateMutability": "nonpayable",
      "type": "function"
    },
    {
      "inputs": [
        {
          "internalType": "address",
          "name": "operator",
          "type": "address"
        },
        {
          "internalType": "bool",
          "name": "approved",
          "type": "bool"
        }
      ],
      "name": "setApprovalForAll",
      "outputs": [],
      "stateMutability": "nonpayable",
      "type": "function"
    },
    {
      "inputs": [
        {
          "internalType": "string",
          "name": "uri",
          "type": "string"
        }
      ],
      "name": "setBaseTokenURI",
      "outputs": [],
      "stateMutability": "nonpayable",
      "type": "function"
    },
    {
      "inputs": [
        {
          "internalType": "address",
          "name": "receiver",
          "type": "address"
        },
        {
          "internalType": "uint96",
          "name": "feeBps",
          "type": "uint96"
        }
      ],
      "name": "setDefaultRoyalty",
      "outputs": [],
      "stateMutability": "nonpayable",
      "type": "function"
    },
    {
      "inputs": [
        {
          "internalType": "bytes4",
          "name": "id",
          "type": "bytes4"
        }
      ],
      "name": "supportsInterface",
      "outputs": [
        {
          "internalType": "bool",
          "name": "",
          "type": "bool"
        }
      ],
      "stateMutability": "view",
      "type": "function"
    },
    {
      "inputs": [],
      "name": "symbol",
      "outputs": [
        {
          "internalType": "string",
          "name": "",
          "type": "string"
        }
      ],
      "stateMutability": "view",
      "type": "function"
    },
    {
      "inputs": [
        {
          "internalType": "uint256",
          "name": "tokenId",
          "type": "uint256"
        }
      ],
      "name": "tokenURI",
      "outputs": [
        {
          "internalType": "string",
          "name": "",
          "type": "string"
        }
      ],
      "stateMutability": "view",
      "type": "function"
    },
    {
      "inputs": [
        {
          "internalType": "address",
          "name": "from",
          "type": "address"
        },
        {
          "internalType": "address",
          "name": "to",
          "type": "address"
        },
        {
          "internalType": "uint256",
          "name": "tokenId",
          "type": "uint256"
        }
      ],
      "name": "transferFrom",
      "outputs": [],
      "stateMutability": "nonpayable",
      "type": "function"
    },
    {
      "inputs": [
        {
          "internalType": "address",
          "name": "newOwner",
          "type": "address"
        }
      ],
      "name": "transferOwnership",
      "outputs": [],
      "stateMutability": "nonpayable",
      "type": "function"
    }
  ],
  "bytecode": "0x608060405234801561001057600080fd5b50604051611dae380380611dae83398101604081905261002f91610248565b338484600061003e838261037a565b50600161004b828261037a565b5050506001600160a01b03811661007d57604051631e4fbdf760e01b8152600060048201526024015b60405180910390fd5b6100868161009a565b5061009182826100ec565b50505050610438565b600980546001600160a01b038381166001600160a01b0319831681179093556040519116919082907f8be0079c531659141344cd1fd0a4f28419497f9722a3daafe3b4186f6b6457e090600090a35050565b6127106001600160601b03821681101561012b57604051636f483d0960e01b81526001600160601b038316600482015260248101829052604401610074565b6001600160a01b03831661015557604051635b6cc80560e11b815260006004820152602401610074565b50604080518082019091526001600160a01b039092168083526001600160601b039091166020909201829052600160a01b90910217600755565b634e487b7160e01b600052604160045260246000fd5b600082601f8301126101b657600080fd5b81516001600160401b038111156101cf576101cf61018f565b604051601f8201601f19908116603f011681016001600160401b03811182821017156101fd576101fd61018f565b60405281815283820160200185101561021557600080fd5b60005b8281101561023457602081860181015183830182015201610218565b506000918101602001919091529392505050565b6000806000806080858703121561025e57600080fd5b84516001600160401b0381111561027457600080fd5b610280878288016101a5565b602087015190955090506001600160401b0381111561029e57600080fd5b6102aa878288016101a5565b604087015190945090506001600160a01b03811681146102c957600080fd5b60608601519092506001600160601b03811681146102e657600080fd5b939692955090935050565b600181811c9082168061030557607f821691505b60208210810361032557634e487b7160e01b600052602260045260246000fd5b50919050565b601f82111561037557806000526020600020601f840160051c810160208510156103525750805b601f840160051c820191505b81811015610372576000815560010161035e565b50505b505050565b81516001600160401b038111156103935761039361018f565b6103a7816103a184546102f1565b8461032b565b6020601f8211600181146103db57600083156103c35750848201515b600019600385901b1c1916600184901b178455610372565b600084815260208120601f198516915b8281101561040b57878501518255602094850194600190920191016103eb565b50848210156104295786840151600019600387901b60f8161c191681555b50505050600190811b01905550565b611967806104476000396000f3fe608060405234801561001057600080fd5b50600436106101425760003560e01c8063715018a6116100b8578063b88d4fde1161007c578063b88d4fde146102b2578063c87b56dd146102c5578063d0def521146102d8578063d547cfb7146102eb578063e985e9c5146102f3578063f2fde38b1461030657600080fd5b8063715018a6146102765780638da5cb5b1461027e57806395d89b411461028f578063a22cb46514610297578063aa1b103f146102aa57600080fd5b806323b872dd1161010a57806323b872dd146101d75780632a55205a146101ea57806330176e131461021c57806342842e0e1461022f5780636352211e1461024257806370a082311461025557600080fd5b806301ffc9a71461014757806304634d8d1461016f57806306fdde0314610184578063081812fc14610199578063095ea7b3146101c4575b600080fd5b61015a6101553660046111ee565b610319565b60405190151581526020015b60405180910390f35b61018261017d366004611227565b61032a565b005b61018c610340565b60405161016691906112ba565b6101ac6101a73660046112cd565b6103d2565b6040516001600160a01b039091168152602001610166565b6101826101d23660046112e6565b6103fb565b6101826101e5366004611310565b610406565b6101fd6101f836600461134d565b610496565b604080516001600160a01b039093168352602083019190915201610166565b61018261022a3660046113b1565b61051d565b61018261023d366004611310565b610537565b6101ac6102503660046112cd565b610552565b6102686102633660046113f3565b61055d565b604051908152602001610166565b6101826105a5565b6009546001600160a01b03166101ac565b61018c6105b9565b6101826102a536600461140e565b6105c8565b6101826105d3565b6101826102c0366004611455565b6105e5565b61018c6102d33660046112cd565b6105fd565b6102686102e6366004611539565b61070e565b61018c6107b7565b61015a61030136600461158c565b610845565b6101826103143660046113f3565b610873565b6000610324826108b1565b92915050565b6103326108d6565b61033c8282610903565b5050565b60606000805461034f906115bf565b80601f016020809104026020016040519081016040528092919081815260200182805461037b906115bf565b80156103c85780601f1061039d576101008083540402835291602001916103c8565b820191906000526020600020905b8154815290600101906020018083116103ab57829003601f168201915b5050505050905090565b60006103dd826109a6565b506000828152600460205260409020546001600160a01b0316610324565b61033c8282336109df565b6001600160a01b03821661043557604051633250574960e11b8152600060048201526024015b60405180910390fd5b60006104428383336109ec565b9050836001600160a01b0316816001600160a01b031614610490576040516364283d7b60e01b81526001600160a01b038086166004830152602482018490528216604482015260640161042c565b50505050565b600082815260086020526040812080548291906001600160a01b03811690600160a01b90046001600160601b0316816104ea5750506007546001600160a01b03811690600160a01b90046001600160601b03165b60006127106105026001600160601b0384168961160f565b61050c9190611626565b9295509193505050505b9250929050565b6105256108d6565b600b61053282848361168f565b505050565b610532838383604051806020016040528060008152506105e5565b6000610324826109a6565b60006001600160a01b038216610589576040516322718ad960e21b81526000600482015260240161042c565b506001600160a01b031660009081526003602052604090205490565b6105ad6108d6565b6105b76000610ae5565b565b60606001805461034f906115bf565b61033c338383610b37565b6105db6108d6565b6105b76000600755565b6105f0848484610406565b6104903385858585610bd6565b6060610608826109a6565b5060008281526006602052604081208054610622906115bf565b80601f016020809104026020016040519081016040528092919081815260200182805461064e906115bf565b801561069b5780601f106106705761010080835404028352916020019161069b565b820191906000526020600020905b81548152906001019060200180831161067e57829003601f168201915b5050505050905060006106b960408051602081019091526000815290565b905080516000036106cb575092915050565b8151156106fd5780826040516020016106e592919061174f565b60405160208183030381529060405292505050919050565b61070684610d01565b949350505050565b60006107186108d6565b6000600a600081546107299061177e565b9182905550905061073a8582610d76565b61070681600b805461074b906115bf565b15905061077c57600b868660405160200161076893929190611797565b604051602081830303815290604052610ddb565b85858080601f016020809104026020016040519081016040528093929190818152602001838380828437600092019190915250505050610ddb565b600b80546107c4906115bf565b80601f01602080910402602001604051908101604052809291908181526020018280546107f0906115bf565b801561083d5780601f106108125761010080835404028352916020019161083d565b820191906000526020600020905b81548152906001019060200180831161082057829003601f168201915b505050505081565b6001600160a01b03918216600090815260056020908152604080832093909416825291909152205460ff1690565b61087b6108d6565b6001600160a01b0381166108a557604051631e4fbdf760e01b81526000600482015260240161042c565b6108ae81610ae5565b50565b60006001600160e01b0319821663152a902d60e11b1480610324575061032482610e2b565b6009546001600160a01b031633146105b75760405163118cdaa760e01b815233600482015260240161042c565b6127106001600160601b03821681101561094257604051636f483d0960e01b81526001600160601b03831660048201526024810182905260440161042c565b6001600160a01b03831661096c57604051635b6cc80560e11b81526000600482015260240161042c565b50604080518082019091526001600160a01b039092168083526001600160601b039091166020909201829052600160a01b90910217600755565b6000818152600260205260408120546001600160a01b03168061032457604051637e27328960e01b81526004810184905260240161042c565b6105328383836001610e50565b6000828152600260205260408120546001600160a01b0390811690831615610a1957610a19818486610f56565b6001600160a01b03811615610a5757610a36600085600080610e50565b6001600160a01b038116600090815260036020526040902080546000190190555b6001600160a01b03851615610a86576001600160a01b0385166000908152600360205260409020805460010190555b60008481526002602052604080822080546001600160a01b0319166001600160a01b0389811691821790925591518793918516917fddf252ad1be2c89b69c2b068fc378daa952ba7f163c4a11628f55a4df523b3ef91a4949350505050565b600980546001600160a01b038381166001600160a01b0319831681179093556040519116919082907f8be0079c531659141344cd1fd0a4f28419497f9722a3daafe3b4186f6b6457e090600090a35050565b6001600160a01b038216610b6957604051630b61174360e31b81526001600160a01b038316600482015260240161042c565b6001600160a01b03838116600081815260056020908152604080832094871680845294825291829020805460ff191686151590811790915591519182527f17307eab39ab6107e8899845ad3d59bd9653f200f220920489ca2b5937696c31910160405180910390a3505050565b6001600160a01b0383163b15610cfa57604051630a85bd0160e11b81526001600160a01b0384169063150b7a0290610c18908890889087908790600401611818565b6020604051808303816000875af1925050508015610c53575060408051601f3d908101601f19168201909252610c5091810190611855565b60015b610cbc573d808015610c81576040519150601f19603f3d011682016040523d82523d6000602084013e610c86565b606091505b508051600003610cb457604051633250574960e11b81526001600160a01b038516600482015260240161042c565b805160208201fd5b6001600160e01b03198116630a85bd0160e11b14610cf857604051633250574960e11b81526001600160a01b038516600482015260240161042c565b505b5050505050565b6060610d0c826109a6565b506000610d2460408051602081019091526000815290565b90506000815111610d445760405180602001604052806000815250610d6f565b80610d4e84610fba565b604051602001610d5f92919061174f565b6040516020818303038152906040525b9392505050565b6001600160a01b038216610da057604051633250574960e11b81526000600482015260240161042c565b6000610dae838360006109ec565b90506001600160a01b03811615610532576040516339e3563760e11b81526000600482015260240161042c565b6000828152600660205260409020610df38282611872565b506040518281527ff8e1a15aba9398e019f0b49df1a4fde98ee17ae345cb5f6b5e2c27f5033e8ce79060200160405180910390a15050565b60006001600160e01b03198216632483248360e11b148061032457506103248261104d565b8080610e6457506001600160a01b03821615155b15610f26576000610e74846109a6565b90506001600160a01b03831615801590610ea05750826001600160a01b0316816001600160a01b031614155b8015610eb35750610eb18184610845565b155b15610edc5760405163a9fbf51f60e01b81526001600160a01b038416600482015260240161042c565b8115610f245783856001600160a01b0316826001600160a01b03167f8c5be1e5ebec7d5bd14f71427d1e84f3dd0314c0f7b2291e5b200ac8c7c3b92560405160405180910390a45b505b5050600090815260046020526040902080546001600160a01b0319166001600160a01b0392909216919091179055565b610f6183838361109d565b610532576001600160a01b038316610f8f57604051637e27328960e01b81526004810182905260240161042c565b60405163177e802f60e01b81526001600160a01b03831660048201526024810182905260440161042c565b60606000610fc783611100565b600101905060008167ffffffffffffffff811115610fe757610fe761143f565b6040519080825280601f01601f191660200182016040528015611011576020820181803683370190505b5090508181016020015b600019016f181899199a1a9b1b9c1cb0b131b232b360811b600a86061a8153600a850494508461101b57509392505050565b60006001600160e01b031982166380ac58cd60e01b148061107e57506001600160e01b03198216635b5e139f60e01b145b8061032457506301ffc9a760e01b6001600160e01b0319831614610324565b60006001600160a01b038316158015906107065750826001600160a01b0316846001600160a01b031614806110d757506110d78484610845565b806107065750506000908152600460205260409020546001600160a01b03908116911614919050565b60008072184f03e93ff9f4daa797ed6e38ed64bf6a1f0160401b831061113f5772184f03e93ff9f4daa797ed6e38ed64bf6a1f0160401b830492506040015b6d04ee2d6d415b85acef8100000000831061116b576d04ee2d6d415b85acef8100000000830492506020015b662386f26fc10000831061118957662386f26fc10000830492506010015b6305f5e10083106111a1576305f5e100830492506008015b61271083106111b557612710830492506004015b606483106111c7576064830492506002015b600a83106103245760010192915050565b6001600160e01b0319811681146108ae57600080fd5b60006020828403121561120057600080fd5b8135610d6f816111d8565b80356001600160a01b038116811461122257600080fd5b919050565b6000806040838503121561123a57600080fd5b6112438361120b565b915060208301356001600160601b038116811461125f57600080fd5b809150509250929050565b60005b8381101561128557818101518382015260200161126d565b50506000910152565b600081518084526112a681602086016020860161126a565b601f01601f19169290920160200192915050565b602081526000610d6f602083018461128e565b6000602082840312156112df57600080fd5b5035919050565b600080604083850312156112f957600080fd5b6113028361120b565b946020939093013593505050565b60008060006060848603121561132557600080fd5b61132e8461120b565b925061133c6020850161120b565b929592945050506040919091013590565b6000806040838503121561136057600080fd5b50508035926020909101359150565b60008083601f84011261138157600080fd5b50813567ffffffffffffffff81111561139957600080fd5b60208301915083602082850101111561051657600080fd5b600080602083850312156113c457600080fd5b823567ffffffffffffffff8111156113db57600080fd5b6113e78582860161136f565b90969095509350505050565b60006020828403121561140557600080fd5b610d6f8261120b565b6000806040838503121561142157600080fd5b61142a8361120b565b91506020830135801515811461125f57600080fd5b634e487b7160e01b600052604160045260246000fd5b6000806000806080858703121561146b57600080fd5b6114748561120b565b93506114826020860161120b565b925060408501359150606085013567ffffffffffffffff8111156114a557600080fd5b8501601f810187136114b657600080fd5b803567ffffffffffffffff8111156114d0576114d061143f565b604051601f8201601f19908116603f0116810167ffffffffffffffff811182821017156114ff576114ff61143f565b60405281815282820160200189101561151757600080fd5b8160208401602083013760006020838301015280935050505092959194509250565b60008060006040848603121561154e57600080fd5b6115578461120b565b9250602084013567ffffffffffffffff81111561157357600080fd5b61157f8682870161136f565b9497909650939450505050565b6000806040838503121561159f57600080fd5b6115a88361120b565b91506115b66020840161120b565b90509250929050565b600181811c908216806115d357607f821691505b6020821081036115f357634e487b7160e01b600052602260045260246000fd5b50919050565b634e487b7160e01b600052601160045260246000fd5b8082028115828204841417610324576103246115f9565b60008261164357634e487b7160e01b600052601260045260246000fd5b500490565b601f82111561053257806000526020600020601f840160051c8101602085101561166f5750805b601f840160051c820191505b81811015610cfa576000815560010161167b565b67ffffffffffffffff8311156116a7576116a761143f565b6116bb836116b583546115bf565b83611648565b6000601f8411600181146116ef57600085156116d75750838201355b600019600387901b1c1916600186901b178355610cfa565b600083815260209020601f19861690835b828110156117205786850135825560209485019460019092019101611700565b508682101561173d5760001960f88860031b161c19848701351681555b505060018560011b0183555050505050565b6000835161176181846020880161126a565b83519083019061177581836020880161126a565b01949350505050565b600060018201611790576117906115f9565b5060010190565b60008085546117a5816115bf565b6001821680156117bc57600181146117d157611801565b60ff1983168652811515820286019350611801565b88600052602060002060005b838110156117f9578154888201526001909101906020016117dd565b505081860193505b505050838582376000930192835250909392505050565b6001600160a01b038581168252841660208201526040810183905260806060820181905260009061184b9083018461128e565b9695505050505050565b60006020828403121561186757600080fd5b8151610d6f816111d8565b815167ffffffffffffffff81111561188c5761188c61143f565b6118a08161189a84546115bf565b84611648565b6020601f8211600181146118d457600083156118bc5750848201515b600019600385901b1c1916600184901b178455610cfa565b600084815260208120601f198516915b8281101561190457878501518255602094850194600190920191016118e4565b50848210156119225786840151600019600387901b60f8161c191681555b50505050600190811b0190555056fea2646970667358221220f9536216261148930bb712d70e2848e348ba729d0040ecc2421871c1ed3e62fa64736f6c634300081c0033",
  "linkReferences": {},
  "deployedLinkReferences": {}
}