{
  "_format": "hh-sol-artifact-1",
  "contractName": "NftMarketplace",
  "sourceName": "contracts/NftMarketPlace.sol",
  "abi": [
    {
      "inputs": [
        {
          "internalType": "address",
          "name": "_recipient",
          "type": "address"
        },
        {
          "internalType": "uint96",
          "name": "_feeBps",
          "type": "uint96"
        }
      ],
      "stateMutability": "nonpayable",
      "type": "constructor"
    },
    {
      "inputs": [],
      "name": "EnforcedPause",
      "type": "error"
    },
    {
      "inputs": [],
      "name": "ExpectedPause",
      "type": "error"
    },
    {
      "inputs": [
        {
          "internalType": "address",
          "name": "owner",
          "type": "address"
        }
      ],
      "name": "OwnableInvalidOwner",
      "type": "error"
    },
    {
      "inputs": [
        {
          "internalType": "address",
          "name": "account",
          "type": "address"
        }
      ],
      "name": "OwnableUnauthorizedAccount",
      "type": "error"
    },
    {
      "inputs": [],
      "name": "ReentrancyGuardReentrantCall",
      "type": "error"
    },
    {
      "anonymous": false,
      "inputs": [
        {
          "indexed": true,
          "internalType": "address",
          "name": "nft",
          "type": "address"
        },
        {
          "indexed": false,
          "internalType": "uint256",
          "name": "id",
          "type": "uint256"
        },
        {
          "indexed": false,
          "internalType": "uint256",
          "name": "end",
          "type": "uint256"
        }
      ],
      "name": "AuctionCreated",
      "type": "event"
    },
    {
      "anonymous": false,
      "inputs": [
        {
          "indexed": true,
          "internalType": "address",
          "name": "nft",
          "type": "address"
        },
        {
          "indexed": false,
          "internalType": "uint256",
          "name": "id",
          "type": "uint256"
        },
        {
          "indexed": false,
          "internalType": "address",
          "name": "winner",
          "type": "address"
        },
        {
          "indexed": false,
          "internalType": "uint256",
          "name": "amount",
          "type": "uint256"
        }
      ],
      "name": "AuctionEnded",
      "type": "event"
    },
    {
      "anonymous": false,
      "inputs": [
        {
          "indexed": true,
          "internalType": "address",
          "name": "nft",
          "type": "address"
        },
        {
          "indexed": false,
          "internalType": "uint256",
          "name": "id",
          "type": "uint256"
        },
        {
          "indexed": false,
          "internalType": "address",
          "name": "bidder",
          "type": "address"
        },
        {
          "indexed": false,
          "internalType": "uint256",
          "name": "amount",
          "type": "uint256"
        }
      ],
      "name": "BidPlaced",
      "type": "event"
    },
    {
      "anonymous": false,
      "inputs": [
        {
          "indexed": true,
          "internalType": "address",
          "name": "nft",
          "type": "address"
        },
        {
          "indexed": false,
          "internalType": "uint256",
          "name": "id",
          "type": "uint256"
        }
      ],
      "name": "ItemDelisted",
      "type": "event"
    },
    {
      "anonymous": false,
      "inputs": [
        {
          "indexed": true,
          "internalType": "address",
          "name": "nft",
          "type": "address"
        },
        {
          "indexed": false,
          "internalType": "uint256",
          "name": "id",
          "type": "uint256"
        },
        {
          "indexed": false,
          "internalType": "address",
          "name": "seller",
          "type": "address"
        },
        {
          "indexed": false,
          "internalType": "uint256",
          "name": "price",
          "type": "uint256"
        }
      ],
      "name": "ItemListed",
      "type": "event"
    },
    {
      "anonymous": false,
      "inputs": [
        {
          "indexed": true,
          "internalType": "address",
          "name": "nft",
          "type": "address"
        },
        {
          "indexed": false,
          "internalType": "uint256",
          "name": "id",
          "type": "uint256"
        },
        {
          "indexed": false,
          "internalType": "uint256",
          "name": "newPrice",
          "type": "uint256"
        }
      ],
      "name": "ItemPriceSet",
      "type": "event"
    },
    {
      "anonymous": false,
      "inputs": [
        {
          "indexed": true,
          "internalType": "address",
          "name": "nft",
          "type": "address"
        },
        {
          "indexed": false,
          "internalType": "uint256",
          "name": "id",
          "type": "uint256"
        },
        {
          "indexed": false,
          "internalType": "uint256",
          "name": "price",
          "type": "uint256"
        },
        {
          "indexed": false,
          "internalType": "address",
          "name": "buyer",
          "type": "address"
        }
      ],
      "name": "ItemSold",
      "type": "event"
    },
    {
      "anonymous": false,
      "inputs": [
        {
          "indexed": true,
          "internalType": "address",
          "name": "previousOwner",
          "type": "address"
        },
        {
          "indexed": true,
          "internalType": "address",
          "name": "newOwner",
          "type": "address"
        }
      ],
      "name": "OwnershipTransferred",
      "type": "event"
    },
    {
      "anonymous": false,
      "inputs": [
        {
          "indexed": false,
          "internalType": "address",
          "name": "account",
          "type": "address"
        }
      ],
      "name": "Paused",
      "type": "event"
    },
    {
      "anonymous": false,
      "inputs": [
        {
          "indexed": true,
          "internalType": "address",
          "name": "recipient",
          "type": "address"
        },
        {
          "indexed": false,
          "internalType": "uint96",
          "name": "feeBps",
          "type": "uint96"
        }
      ],
      "name": "PlatformFeeUpdated",
      "type": "event"
    },
    {
      "anonymous": false,
      "inputs": [
        {
          "indexed": true,
          "internalType": "address",
          "name": "to",
          "type": "address"
        },
        {
          "indexed": false,
          "internalType": "uint256",
          "name": "amount",
          "type": "uint256"
        }
      ],
      "name": "ProceedsWithdrawn",
      "type": "event"
    },
    {
      "anonymous": false,
      "inputs": [
        {
          "indexed": false,
          "internalType": "address",
          "name": "account",
          "type": "address"
        }
      ],
      "name": "Unpaused",
      "type": "event"
    },
    {
      "inputs": [
        {
          "internalType": "address",
          "name": "",
          "type": "address"
        },
        {
          "internalType": "uint256",
          "name": "",
          "type": "uint256"
        }
      ],
      "name": "auctions",
      "outputs": [
        {
          "internalType": "address",
          "name": "seller",
          "type": "address"
        },
        {
          "internalType": "uint40",
          "name": "end",
          "type": "uint40"
        },
        {
          "internalType": "uint96",
          "name": "bid",
          "type": "uint96"
        },
        {
          "internalType": "address",
          "name": "bidder",
          "type": "address"
        }
      ],
      "stateMutability": "view",
      "type": "function"
    },
    {
      "inputs": [
        {
          "internalType": "address",
          "name": "nft",
          "type": "address"
        },
        {
          "internalType": "uint256",
          "name": "id",
          "type": "uint256"
        }
      ],
      "name": "bid",
      "outputs": [],
      "stateMutability": "payable",
      "type": "function"
    },
    {
      "inputs": [
        {
          "internalType": "address",
          "name": "nft",
          "type": "address"
        },
        {
          "internalType": "uint256",
          "name": "id",
          "type": "uint256"
        }
      ],
      "name": "buyItem",
      "outputs": [],
      "stateMutability": "payable",
      "type": "function"
    },
    {
      "inputs": [
        {
          "internalType": "address",
          "name": "nft",
          "type": "address"
        },
        {
          "internalType": "uint256",
          "name": "id",
          "type": "uint256"
        }
      ],
      "name": "cancelAuction",
      "outputs": [],
      "stateMutability": "nonpayable",
      "type": "function"
    },
    {
      "inputs": [
        {
          "internalType": "address",
          "name": "nft",
          "type": "address"
        },
        {
          "internalType": "uint256",
          "name": "id",
          "type": "uint256"
        },
        {
          "internalType": "uint40",
          "name": "duration",
          "type": "uint40"
        }
      ],
      "name": "createAuction",
      "outputs": [],
      "stateMutability": "nonpayable",
      "type": "function"
    },
    {
      "inputs": [
        {
          "internalType": "address",
          "name": "nft",
          "type": "address"
        },
        {
          "internalType": "uint256",
          "name": "id",
          "type": "uint256"
        }
      ],
      "name": "delistItem",
      "outputs": [],
      "stateMutability": "nonpayable",
      "type": "function"
    },
    {
      "inputs": [
        {
          "internalType": "address",
          "name": "nft",
          "type": "address"
        },
        {
          "internalType": "uint256",
          "name": "id",
          "type": "uint256"
        }
      ],
      "name": "endAuction",
      "outputs": [],
      "stateMutability": "nonpayable",
      "type": "function"
    },
    {
      "inputs": [],
      "name": "feeRecipient",
      "outputs": [
        {
          "internalType": "address",
          "name": "",
          "type": "address"
        }
      ],
      "stateMutability": "view",
      "type": "function"
    },
    {
      "inputs": [
        {
          "internalType": "address",
          "name": "nft",
          "type": "address"
        },
        {
          "internalType": "uint256",
          "name": "id",
          "type": "uint256"
        },
        {
          "internalType": "uint96",
          "name": "price",
          "type": "uint96"
        }
      ],
      "name": "listItem",
      "outputs": [],
      "stateMutability": "nonpayable",
      "type": "function"
    },
    {
      "inputs": [
        {
          "internalType": "address",
          "name": "",
          "type": "address"
        },
        {
          "internalType": "uint256",
          "name": "",
          "type": "uint256"
        }
      ],
      "name": "listings",
      "outputs": [
        {
          "internalType": "address",
          "name": "seller",
          "type": "address"
        },
        {
          "internalType": "uint96",
          "name": "price",
          "type": "uint96"
        }
      ],
      "stateMutability": "view",
      "type": "function"
    },
    {
      "inputs": [
        {
          "internalType": "address",
          "name": "",
          "type": "address"
        },
        {
          "internalType": "address",
          "name": "",
          "type": "address"
        },
        {
          "internalType": "uint256",
          "name": "",
          "type": "uint256"
        },
        {
          "internalType": "bytes",
          "name": "",
          "type": "bytes"
        }
      ],
      "name": "onERC721Received",
      "outputs": [
        {
          "internalType": "bytes4",
          "name": "",
          "type": "bytes4"
        }
      ],
      "stateMutability": "nonpayable",
      "type": "function"
    },
    {
      "inputs": [],
      "name": "owner",
      "outputs": [
        {
          "internalType": "address",
          "name": "",
          "type": "address"
        }
      ],
      "stateMutability": "view",
      "type": "function"
    },
    {
      "inputs": [],
      "name": "pause",
      "outputs": [],
      "stateMutability": "nonpayable",
      "type": "function"
    },
    {
      "inputs": [],
      "name": "paused",
      "outputs": [
        {
          "internalType": "bool",
          "name": "",
          "type": "bool"
        }
      ],
      "stateMutability": "view",
      "type": "function"
    },
    {
      "inputs": [],
      "name": "platformFeeBps",
      "outputs": [
        {
          "internalType": "uint96",
          "name": "",
          "type": "uint96"
        }
      ],
      "stateMutability": "view",
      "type": "function"
    },
    {
      "inputs": [
        {
          "internalType": "address",
          "name": "",
          "type": "address"
        }
      ],
      "name": "proceeds",
      "outputs": [
        {
          "internalType": "uint256",
          "name": "",
          "type": "uint256"
        }
      ],
      "stateMutability": "view",
      "type": "function"
    },
    {
      "inputs": [],
      "name": "renounceOwnership",
      "outputs": [],
      "stateMutability": "nonpayable",
      "type": "function"
    },
    {
      "inputs": [
        {
          "internalType": "address",
          "name": "nft",
          "type": "address"
        },
        {
          "internalType": "uint256",
          "name": "id",
          "type": "uint256"
        },
        {
          "internalType": "address",
          "name": "to",
          "type": "address"
        }
      ],
      "name": "rescueNFT",
      "outputs": [],
      "stateMutability": "nonpayable",
      "type": "function"
    },
    {
      "inputs": [
        {
          "internalType": "address",
          "name": "recipient",
          "type": "address"
        },
        {
          "internalType": "uint96",
          "name": "bps",
          "type": "uint96"
        }
      ],
      "name": "setPlatformFee",
      "outputs": [],
      "stateMutability": "nonpayable",
      "type": "function"
    },
    {
      "inputs": [
        {
          "internalType": "address",
          "name": "nft",
          "type": "address"
        },
        {
          "internalType": "uint256",
          "name": "id",
          "type": "uint256"
        },
        {
          "internalType": "uint96",
          "name": "newPrice",
          "type": "uint96"
        }
      ],
      "name": "setPrice",
      "outputs": [],
      "stateMutability": "nonpayable",
      "type": "function"
    },
    {
      "inputs": [
        {
          "internalType": "address",
          "name": "newOwner",
          "type": "address"
        }
      ],
      "name": "transferOwnership",
      "outputs": [],
      "stateMutability": "nonpayable",
      "type": "function"
    },
    {
      "inputs": [],
      "name": "unpause",
      "outputs": [],
      "stateMutability": "nonpayable",
      "type": "function"
    },
    {
      "inputs": [],
      "name": "withdrawProceeds",
      "outputs": [],
      "stateMutability": "nonpayable",
      "type": "function"
    },
    {
      "stateMutability": "payable",
      "type": "receive"
    }
  ],
  "bytecode": "0x608060405234801561001057600080fd5b5060405161204f38038061204f83398101604081905261002f916101c4565b6001600055338061005b57604051631e4fbdf760e01b8152600060048201526024015b60405180910390fd5b61006481610076565b5061006f82826100d0565b5050610216565b600180546001600160a01b03838116610100818102610100600160a81b031985161790945560405193909204169182907f8be0079c531659141344cd1fd0a4f28419497f9722a3daafe3b4186f6b6457e090600090a35050565b6001600160a01b0382166101145760405162461bcd60e51b815260206004820152600b60248201526a0726563697069656e743d360ac1b6044820152606401610052565b6103e8816001600160601b031611156101595760405162461bcd60e51b81526020600482015260076024820152666665653e31302560c81b6044820152606401610052565b6001600160601b0381166001600160a01b0383166c0100000000000000000000000081026001600160601b0319168217600255604051918252907f1e6478ac12ebdcc5503c6df8708a2472c76959aad3ed4089d4f4bdac6b3d97099060200160405180910390a25050565b600080604083850312156101d757600080fd5b82516001600160a01b03811681146101ee57600080fd5b60208401519092506001600160601b038116811461020b57600080fd5b809150509250929050565b611e2a806102256000396000f3fe6080604052600436106101435760003560e01c8063715018a6116100b65780638da5cb5b1161006f5780638da5cb5b146104ab5780639038e693146104ce5780639f37092a146104e3578063ad9a0369146104f6578063df651d7114610516578063f2fde38b1461053657600080fd5b8063715018a6146104015780637fe5d7b714610416578063811c57e3146104365780638456cb5914610456578063859b97fe1461046b57806388cedbc41461048b57600080fd5b80633f4ba83a116101085780633f4ba83a146102a757806344f91c1e146102bc578063469048401461036c57806346b02025146103ab57806359d667a5146103cb5780635c975abb146103de57600080fd5b806207df301461014f578063150b7a02146101ce57806321fab9251461021257806322dcd13e1461023457806335adde541461026c57600080fd5b3661014a57005b600080fd5b34801561015b57600080fd5b506101a261016a366004611a88565b60036020908152600092835260408084209091529082529020546001600160a01b03811690600160a01b90046001600160601b031682565b604080516001600160a01b0390931683526001600160601b039091166020830152015b60405180910390f35b3480156101da57600080fd5b506101f96101e9366004611aca565b630a85bd0160e11b949350505050565b6040516001600160e01b031990911681526020016101c5565b34801561021e57600080fd5b5061023261022d366004611bce565b610556565b005b34801561024057600080fd5b50600254610254906001600160601b031681565b6040516001600160601b0390911681526020016101c5565b34801561027857600080fd5b50610299610287366004611c0c565b60056020526000908152604090205481565b6040519081526020016101c5565b3480156102b357600080fd5b5061023261076d565b3480156102c857600080fd5b5061032a6102d7366004611a88565b6004602090815260009283526040808420909152908252902080546001909101546001600160a01b0380831692600160a01b900464ffffffffff16916001600160601b03811691600160601b9091041684565b604080516001600160a01b03958616815264ffffffffff90941660208501526001600160601b03909216918301919091529190911660608201526080016101c5565b34801561037857600080fd5b5060025461039390600160601b90046001600160a01b031681565b6040516001600160a01b0390911681526020016101c5565b3480156103b757600080fd5b506102326103c6366004611bce565b61077f565b6102326103d9366004611a88565b6108a5565b3480156103ea57600080fd5b5060015460ff1660405190151581526020016101c5565b34801561040d57600080fd5b50610232610a34565b34801561042257600080fd5b50610232610431366004611c30565b610a46565b34801561044257600080fd5b50610232610451366004611c65565b610a58565b34801561046257600080fd5b50610232610cb6565b34801561047757600080fd5b50610232610486366004611a88565b610cc6565b34801561049757600080fd5b506102326104a6366004611a88565b610e8c565b3480156104b757600080fd5b5060015461010090046001600160a01b0316610393565b3480156104da57600080fd5b50610232611147565b6102326104f1366004611a88565b611270565b34801561050257600080fd5b50610232610511366004611a88565b611431565b34801561052257600080fd5b50610232610531366004611cb1565b611561565b34801561054257600080fd5b50610232610551366004611c0c565b6115d0565b61055e61160e565b610566611638565b6000816001600160601b0316116105ae5760405162461bcd60e51b8152602060048201526007602482015266070726963653d360cc1b60448201526064015b60405180910390fd5b6001600160a01b038381166000908152600360209081526040808320868452909152902054161561060a5760405162461bcd60e51b81526020600482015260066024820152651b1a5cdd195960d21b60448201526064016105a5565b6001600160a01b038381166000908152600460209081526040808320868452909152902054161561066a5760405162461bcd60e51b815260206004820152600a60248201526934b71030bab1ba34b7b760b11b60448201526064016105a5565b604051632142170760e11b81526001600160a01b038416906342842e0e9061069a90339030908790600401611ce8565b600060405180830381600087803b1580156106b457600080fd5b505af11580156106c8573d6000803e3d6000fd5b5050604080518082018252338082526001600160601b0386811660208085018281526001600160a01b038c81166000818152600385528981208e8252855289902097519251909516600160a01b02911617909455845189815293840192909252928201529092507fb29a3c5d9c9eb8230bd277c54293a0a15e98cd5592a3e0d470fe9ce59fed54f191506060015b60405180910390a26107686001600055565b505050565b61077561165c565b61077d61168f565b565b61078761160e565b61078f611638565b6001600160a01b0383811660009081526003602090815260408083208684529091529020541633146107ed5760405162461bcd60e51b815260206004820152600760248201526610b9b2b63632b960c91b60448201526064016105a5565b6000816001600160601b0316116108305760405162461bcd60e51b8152602060048201526007602482015266070726963653d360cc1b60448201526064016105a5565b6001600160a01b03838116600081815260036020908152604080832087845282529182902080546001600160601b038716600160a01b81029190961617905581518681529081019390935290917f732149560302870ada662dc9ffdde8c1bd602a085c9489927c10e0c9e96a18fe9101610756565b6108ad61160e565b6108b5611638565b6001600160a01b038216600090815260046020908152604080832084845290915290208054600160a01b900464ffffffffff16421061091e5760405162461bcd60e51b8152602060048201526005602482015264195b99195960da1b60448201526064016105a5565b60018101546001600160601b031634116109645760405162461bcd60e51b81526020600482015260076024820152661b1bddc8189a5960ca1b60448201526064016105a5565b60018101546001600160601b0316156109bc5760018101546001600160a01b03600160601b820416600090815260056020526040812080546001600160601b03909316929091906109b6908490611d22565b90915550505b600160601b339081026001600160601b03349081169190911760018401556040805185815260208101939093528201526001600160a01b038416907f0158f5674dc243762459b88cfc91b10d2d1ef9d40821cca978c2b680aa444682906060015b60405180910390a250610a306001600055565b5050565b610a3c61165c565b61077d60006116e1565b610a4e61165c565b610a30828261173b565b610a6061160e565b610a68611638565b610e108164ffffffffff161015610aaa5760405162461bcd60e51b81526020600482015260066024820152650c8eae47862d60d31b60448201526064016105a5565b6001600160a01b0383811660009081526004602090815260408083208684529091529020541615610b095760405162461bcd60e51b8152602060048201526009602482015268185d58dd1a5bdb995960ba1b60448201526064016105a5565b6001600160a01b0383811660009081526003602090815260408083208684529091529020541615610b655760405162461bcd60e51b81526020600482015260066024820152651b1a5cdd195960d21b60448201526064016105a5565b604051632142170760e11b81526001600160a01b038416906342842e0e90610b9590339030908790600401611ce8565b600060405180830381600087803b158015610baf57600080fd5b505af1158015610bc3573d6000803e3d6000fd5b5050604080516080810190915233815291505060208101610be48342611d3b565b64ffffffffff90811682526000602080840182905260409384018290526001600160a01b038881168084526004835285842089855283529285902086518154938801518616600160a01b026001600160c81b03199094169083161792909217825593850151606090950151909316600160601b026001600160601b0394909416939093176001909201919091557f4560b4b4d2eec0d9c2feb420083427dbdb8371b8df7fc5471791ebe492622f69908490610ca190851642611d22565b60408051928352602083019190915201610756565b610cbe61165c565b61077d61182b565b610cce61160e565b6001600160a01b03828116600090815260046020908152604080832085845282529182902082516080810184528154808616808352600160a01b90910464ffffffffff16938201939093526001909101546001600160601b03811693820193909352600160601b9092049092166060820152903314610d805760405162461bcd60e51b815260206004820152600e60248201526d10b0bab1ba34b7b729b2b63632b960911b60448201526064016105a5565b60408101516001600160601b031615610dc45760405162461bcd60e51b81526020600482015260066024820152651a185cd09a5960d21b60448201526064016105a5565b6001600160a01b038316600081815260046020818152604080842087855290915280832080546001600160c81b03191681556001019290925583519151632142170760e11b81526342842e0e92610e1f923092889101611ce8565b600060405180830381600087803b158015610e3957600080fd5b505af1158015610e4d573d6000803e3d6000fd5b50505050826001600160a01b03167faca2f4260fb2b4e6aa5f68a07c66e0a461f508267354a97bbefb46e09c9b875d83604051610a1d91815260200190565b610e9461160e565b6001600160a01b038281166000908152600460209081526040808320858452825291829020825160808101845281548086168252600160a01b900464ffffffffff169281018390526001909101546001600160601b03811693820193909352600160601b90920490921660608201529015801590610f1d5750806020015164ffffffffff164210155b610f555760405162461bcd60e51b81526020600482015260096024820152681b9bdd08195b99195960ba1b60448201526064016105a5565b6001600160a01b038316600090815260046020908152604080832085845290915280822080546001600160c81b03191681556001018290558201516001600160601b03169003611053578051604051632142170760e11b81526001600160a01b038516916342842e0e91610fcf9130918790600401611ce8565b600060405180830381600087803b158015610fe957600080fd5b505af1158015610ffd573d6000803e3d6000fd5b5050604080518581526000602082018190528183015290516001600160a01b03871693507f4d31a5599cdb48031c1f03259adbd513be468c5735012719a1a9850869b558b192509081900360600190a25061113d565b6110708383836000015184604001516001600160601b0316611866565b6060810151604051632142170760e11b81526001600160a01b038516916342842e0e916110a39130918790600401611ce8565b600060405180830381600087803b1580156110bd57600080fd5b505af11580156110d1573d6000803e3d6000fd5b50505050826001600160a01b03167f4d31a5599cdb48031c1f03259adbd513be468c5735012719a1a9850869b558b18383606001518460400151604051610a1d939291909283526001600160a01b039190911660208301526001600160601b0316604082015260600190565b610a306001600055565b61114f61160e565b33600090815260056020526040902054806111985760405162461bcd60e51b8152602060048201526009602482015268302062616c616e636560b81b60448201526064016105a5565b336000818152600560205260408082208290555190919083908381818185875af1925050503d80600081146111e9576040519150601f19603f3d011682016040523d82523d6000602084013e6111ee565b606091505b505090508061122f5760405162461bcd60e51b815260206004820152600d60248201526c115512081cd95b990819985a5b609a1b60448201526064016105a5565b60405182815233907f0f2fb75cc1977a496e94837f859e957f68e26e70dc1b75d9945ee92ae57969ba9060200160405180910390a2505061077d6001600055565b61127861160e565b611280611638565b6001600160a01b0382811660009081526003602090815260408083208584528252918290208251808401909352549283168252600160a01b9092046001600160601b0316918101829052906113045760405162461bcd60e51b815260206004820152600a6024820152691b9bdd081b1a5cdd195960b21b60448201526064016105a5565b80602001516001600160601b031634146113515760405162461bcd60e51b815260206004820152600e60248201526d0e0e4d2c6ca40dad2e6dac2e8c6d60931b60448201526064016105a5565b6001600160a01b03831660009081526003602090815260408083208584529091528120558051611385908490849034611866565b604051632142170760e11b81526001600160a01b038416906342842e0e906113b590309033908790600401611ce8565b600060405180830381600087803b1580156113cf57600080fd5b505af11580156113e3573d6000803e3d6000fd5b50506040805185815234602082015233918101919091526001600160a01b03861692507fa1dad7a242ad5440359512ca7f24d86adda6cb3cce179adb21025eed2442d7e69150606001610a1d565b61143961160e565b6001600160a01b0382811660009081526003602090815260408083208584529091529020541633146114975760405162461bcd60e51b815260206004820152600760248201526610b9b2b63632b960c91b60448201526064016105a5565b6001600160a01b03821660008181526003602090815260408083208584529091528082209190915551632142170760e11b81526342842e0e906114e290309033908690600401611ce8565b600060405180830381600087803b1580156114fc57600080fd5b505af1158015611510573d6000803e3d6000fd5b50505050816001600160a01b03167faca2f4260fb2b4e6aa5f68a07c66e0a461f508267354a97bbefb46e09c9b875d8260405161154f91815260200190565b60405180910390a2610a306001600055565b61156961165c565b604051632142170760e11b81526001600160a01b038416906342842e0e9061159990309085908790600401611ce8565b600060405180830381600087803b1580156115b357600080fd5b505af11580156115c7573d6000803e3d6000fd5b50505050505050565b6115d861165c565b6001600160a01b03811661160257604051631e4fbdf760e01b8152600060048201526024016105a5565b61160b816116e1565b50565b60026000540361163157604051633ee5aeb560e01b815260040160405180910390fd5b6002600055565b60015460ff161561077d5760405163d93c066560e01b815260040160405180910390fd5b6001546001600160a01b0361010090910416331461077d5760405163118cdaa760e01b81523360048201526024016105a5565b611697611a50565b6001805460ff191690557f5db9ee0a495bf2e6ff9c91a7834c1ba4fdd244a5e8aa4e537bd38aeae4b073aa335b6040516001600160a01b03909116815260200160405180910390a1565b600180546001600160a01b03838116610100818102610100600160a81b031985161790945560405193909204169182907f8be0079c531659141344cd1fd0a4f28419497f9722a3daafe3b4186f6b6457e090600090a35050565b6001600160a01b03821661177f5760405162461bcd60e51b815260206004820152600b60248201526a0726563697069656e743d360ac1b60448201526064016105a5565b6103e8816001600160601b031611156117c45760405162461bcd60e51b81526020600482015260076024820152666665653e31302560c81b60448201526064016105a5565b6001600160601b0381166001600160a01b038316600160601b81026bffffffffffffffffffffffff19168217600255604051918252907f1e6478ac12ebdcc5503c6df8708a2472c76959aad3ed4089d4f4bdac6b3d97099060200160405180910390a25050565b611833611638565b6001805460ff1916811790557f62e78cea01bee320cd4e420270b5ea74000d11b0c9f74754ebdbfc544b05a258336116c4565b6040516301ffc9a760e01b815263152a902d60e11b600482015281906001600160a01b038616906301ffc9a790602401602060405180830381865afa1580156118b3573d6000803e3d6000fd5b505050506040513d601f19601f820116820180604052508101906118d79190611d58565b1561199b5760405163152a902d60e11b8152600481018590526024810183905260009081906001600160a01b03881690632a55205a906044016040805180830381865afa15801561192c573d6000803e3d6000fd5b505050506040513d601f19601f820116820180604052508101906119509190611d7a565b90925090508015611998576119658184611da8565b6001600160a01b038316600090815260056020526040812080549295508392909190611992908490611d22565b90915550505b50505b6002546001600160601b031615611a1c57600254600090612710906119c9906001600160601b031685611dbb565b6119d39190611dd2565b90506119df8183611da8565b600254600160601b90046001600160a01b0316600090815260056020526040812080549294508392909190611a15908490611d22565b9091555050505b6001600160a01b03831660009081526005602052604081208054839290611a44908490611d22565b90915550505050505050565b60015460ff1661077d57604051638dfc202b60e01b815260040160405180910390fd5b6001600160a01b038116811461160b57600080fd5b60008060408385031215611a9b57600080fd5b8235611aa681611a73565b946020939093013593505050565b634e487b7160e01b600052604160045260246000fd5b60008060008060808587031215611ae057600080fd5b8435611aeb81611a73565b93506020850135611afb81611a73565b925060408501359150606085013567ffffffffffffffff811115611b1e57600080fd5b8501601f81018713611b2f57600080fd5b803567ffffffffffffffff811115611b4957611b49611ab4565b604051601f8201601f19908116603f0116810167ffffffffffffffff81118282101715611b7857611b78611ab4565b604052818152828201602001891015611b9057600080fd5b8160208401602083013760006020838301015280935050505092959194509250565b80356001600160601b0381168114611bc957600080fd5b919050565b600080600060608486031215611be357600080fd5b8335611bee81611a73565b925060208401359150611c0360408501611bb2565b90509250925092565b600060208284031215611c1e57600080fd5b8135611c2981611a73565b9392505050565b60008060408385031215611c4357600080fd5b8235611c4e81611a73565b9150611c5c60208401611bb2565b90509250929050565b600080600060608486031215611c7a57600080fd5b8335611c8581611a73565b925060208401359150604084013564ffffffffff81168114611ca657600080fd5b809150509250925092565b600080600060608486031215611cc657600080fd5b8335611cd181611a73565b9250602084013591506040840135611ca681611a73565b6001600160a01b039384168152919092166020820152604081019190915260600190565b634e487b7160e01b600052601160045260246000fd5b80820180821115611d3557611d35611d0c565b92915050565b64ffffffffff8181168382160190811115611d3557611d35611d0c565b600060208284031215611d6a57600080fd5b81518015158114611c2957600080fd5b60008060408385031215611d8d57600080fd5b8251611d9881611a73565b6020939093015192949293505050565b81810381811115611d3557611d35611d0c565b8082028115828204841417611d3557611d35611d0c565b600082611def57634e487b7160e01b600052601260045260246000fd5b50049056fea2646970667358221220abccb4ab27a0515e0dde630246857802d36f24dbb237f89e9379403121f2d2fa64736f6c634300081c0033",
  "linkReferences": {},
  "deployedLinkReferences": {}
}