{
  "_format": "hh-sol-artifact-1",
  "contractName": "MyNFT",
  "sourceName": "contracts/MyNFT.sol",
  "abi": [
    {
      "inputs": [
        {
          "internalType": "string",
          "name": "_name",
          "type": "string"
        },
        {
          "internalType": "string",
          "name": "_symbol",
          "type": "string"
        },
        {
          "internalType": "address",
          "name": "_royaltyReceiver",
          "type": "address"
        },
        {
          "internalType": "uint96",
          "name": "_royaltyFeeBps",
          "type": "uint96"
        }
      ],
      "stateMutability": "nonpayable",
      "type": "constructor"
    },
    {
      "inputs": [
        {
          "internalType": "uint256",
          "name": "numerator",
          "type": "uint256"
        },
        {
          "internalType": "uint256",
          "name": "denominator",
          "type": "uint256"
        }
      ],
      "name": "ERC2981InvalidDefaultRoyalty",
      "type": "error"
    },
    {
      "inputs": [
        {
          "internalType": "address",
          "name": "receiver",
          "type": "address"
        }
      ],
      "name": "ERC2981InvalidDefaultRoyaltyReceiver",
      "type": "error"
    },
    {
      "inputs": [
        {
          "internalType": "uint256",
          "name": "tokenId",
          "type": "uint256"
        },
        {
          "internalType": "uint256",
          "name": "numerator",
          "type": "uint256"
        },
        {
          "internalType": "uint256",
          "name": "denominator",
          "type": "uint256"
        }
      ],
      "name": "ERC2981InvalidTokenRoyalty",
      "type": "error"
    },
    {
      "inputs": [
        {
          "internalType": "uint256",
          "name": "tokenId",
          "type": "uint256"
        },
        {
          "internalType": "address",
          "name": "receiver",
          "type": "address"
        }
      ],
      "name": "ERC2981InvalidTokenRoyaltyReceiver",
      "type": "error"
    },
    {
      "inputs": [
        {
          "internalType": "address",
          "name": "sender",
          "type": "address"
        },
        {
          "internalType": "uint256",
          "name": "tokenId",
          "type": "uint256"
        },
        {
          "internalType": "address",
          "name": "owner",
          "type": "address"
        }
      ],
      "name": "ERC721IncorrectOwner",
      "type": "error"
    },
    {
      "inputs": [
        {
          "internalType": "address",
          "name": "operator",
          "type": "address"
        },
        {
          "internalType": "uint256",
          "name": "tokenId",
          "type": "uint256"
        }
      ],
      "name": "ERC721InsufficientApproval",
      "type": "error"
    },
    {
      "inputs": [
        {
          "internalType": "address",
          "name": "approver",
          "type": "address"
        }
      ],
      "name": "ERC721InvalidApprover",
      "type": "error"
    },
    {
      "inputs": [
        {
          "internalType": "address",
          "name": "operator",
          "type": "address"
        }
      ],
      "name": "ERC721InvalidOperator",
      "type": "error"
    },
    {
      "inputs": [
        {
          "internalType": "address",
          "name": "owner",
          "type": "address"
        }
      ],
      "name": "ERC721InvalidOwner",
      "type": "error"
    },
    {
      "inputs": [
        {
          "internalType": "address",
          "name": "receiver",
          "type": "address"
        }
      ],
      "name": "ERC721InvalidReceiver",
      "type": "error"
    },
    {
      "inputs": [
        {
          "internalType": "address",
          "name": "sender",
          "type": "address"
        }
      ],
      "name": "ERC721InvalidSender",
      "type": "error"
    },
    {
      "inputs": [
        {
          "internalType": "uint256",
          "name": "tokenId",
          "type": "uint256"
        }
      ],
      "name": "ERC721NonexistentToken",
      "type": "error"
    },
    {
      "inputs": [
        {
          "internalType": "address",
          "name": "owner",
          "type": "address"
        }
      ],
      "name": "OwnableInvalidOwner",
      "type": "error"
    },
    {
      "inputs": [
        {
          "internalType": "address",
          "name": "account",
          "type": "address"
        }
      ],
      "name": "OwnableUnauthorizedAccount",
      "type": "error"
    },
    {
      "anonymous": false,
      "inputs": [
        {
          "indexed": true,
          "internalType": "address",
          "name": "owner",
          "type": "address"
        },
        {
          "indexed": true,
          "internalType": "address",
          "name": "approved",
          "type": "address"
        },
        {
          "indexed": true,
          "internalType": "uint256",
          "name": "tokenId",
          "type": "uint256"
        }
      ],
      "name": "Approval",
      "type": "event"
    },
    {
      "anonymous": false,
      "inputs": [
        {
          "indexed": true,
          "internalType": "address",
          "name": "owner",
          "type": "address"
        },
        {
          "indexed": true,
          "internalType": "address",
          "name": "operator",
          "type": "address"
        },
        {
          "indexed": false,
          "internalType": "bool",
          "name": "approved",
          "type": "bool"
        }
      ],
      "name": "ApprovalForAll",
      "type": "event"
    },
    {
      "anonymous": false,
      "inputs": [
        {
          "indexed": false,
          "internalType": "uint256",
          "name": "_fromTokenId",
          "type": "uint256"
        },
        {
          "indexed": false,
          "internalType": "uint256",
          "name": "_toTokenId",
          "type": "uint256"
        }
      ],
      "name": "BatchMetadataUpdate",
      "type": "event"
    },
    {
      "anonymous": false,
      "inputs": [
        {
          "indexed": false,
          "internalType": "uint256",
          "name": "_tokenId",
          "type": "uint256"
        }
      ],
      "name": "MetadataUpdate",
      "type": "event"
    },
    {
      "anonymous": false,
      "inputs": [
        {
          "indexed": true,
          "internalType": "address",
          "name": "previousOwner",
          "type": "address"
        },
        {
          "indexed": true,
          "internalType": "address",
          "name": "newOwner",
          "type": "address"
        }
      ],
      "name": "OwnershipTransferred",
      "type": "event"
    },
    {
      "anonymous": false,
      "inputs": [
        {
          "indexed": true,
          "internalType": "address",
          "name": "from",
          "type": "address"
        },
        {
          "indexed": true,
          "internalType": "address",
          "name": "to",
          "type": "address"
        },
        {
          "indexed": true,
          "internalType": "uint256",
          "name": "tokenId",
          "type": "uint256"
        }
      ],
      "name": "Transfer",
      "type": "event"
    },
    {
      "inputs": [
        {
          "internalType": "address",
          "name": "to",
          "type": "address"
        },
        {
          "internalType": "uint256",
          "name": "tokenId",
          "type": "uint256"
        }
      ],
      "name": "approve",
      "outputs": [],
      "stateMutability": "nonpayable",
      "type": "function"
    },
    {
      "inputs": [
        {
          "internalType": "address",
          "name": "owner",
          "type": "address"
        }
      ],
      "name": "balanceOf",
      "outputs": [
        {
          "internalType": "uint256",
          "name": "",
          "type": "uint256"
        }
      ],
      "stateMutability": "view",
      "type": "function"
    },
    {
      "inputs": [],
      "name": "baseTokenURI",
      "outputs": [
        {
          "internalType": "string",
          "name": "",
          "type": "string"
        }
      ],
      "stateMutability": "view",
      "type": "function"
    },
    {
      "inputs": [],
      "name": "deleteDefaultRoyalty",
      "outputs": [],
      "stateMutability": "nonpayable",
      "type": "function"
    },
    {
      "inputs": [
        {
          "internalType": "uint256",
          "name": "tokenId",
          "type": "uint256"
        }
      ],
      "name": "getApproved",
      "outputs": [
        {
          "internalType": "address",
          "name": "",
          "type": "address"
        }
      ],
      "stateMutability": "view",
      "type": "function"
    },
    {
      "inputs": [
        {
          "internalType": "address",
          "name": "owner",
          "type": "address"
        },
        {
          "internalType": "address",
          "name": "operator",
          "type": "address"
        }
      ],
      "name": "isApprovedForAll",
      "outputs": [
        {
          "internalType": "bool",
          "name": "",
          "type": "bool"
        }
      ],
      "stateMutability": "view",
      "type": "function"
    },
    {
      "inputs": [
        {
          "internalType": "address",
          "name": "to",
          "type": "address"
        },
        {
          "internalType": "string",
          "name": "uri",
          "type": "string"
        }
      ],
      "name": "mint",
      "outputs": [
        {
          "internalType": "uint256",
          "name": "",
          "type": "uint256"
        }
      ],
      "stateMutability": "nonpayable",
      "type": "function"
    },
    {
      "inputs": [
        {
          "internalType": "address",
          "name": "to",
          "type": "address"
        },
        {
          "internalType": "string",
          "name": "uri",
          "type": "string"
        },
        {
          "internalType": "address",
          "name": "receiver",
          "type": "address"
        },
        {
          "internalType": "uint96",
          "name": "feeBps",
          "type": "uint96"
        }
      ],
      "name": "mintWithRoyalty",
      "outputs": [
        {
          "internalType": "uint256",
          "name": "",
          "type": "uint256"
        }
      ],
      "stateMutability": "nonpayable",
      "type": "function"
    },
    {
      "inputs": [],
      "name": "name",
      "outputs": [
        {
          "internalType": "string",
          "name": "",
          "type": "string"
        }
      ],
      "stateMutability": "view",
      "type": "function"
    },
    {
      "inputs": [],
      "name": "owner",
      "outputs": [
        {
          "internalType": "address",
          "name": "",
          "type": "address"
        }
      ],
      "stateMutability": "view",
      "type": "function"
    },
    {
      "inputs": [
        {
          "internalType": "uint256",
          "name": "tokenId",
          "type": "uint256"
        }
      ],
      "name": "ownerOf",
      "outputs": [
        {
          "internalType": "address",
          "name": "",
          "type": "address"
        }
      ],
      "stateMutability": "view",
      "type": "function"
    },
    {
      "inputs": [],
      "name": "renounceOwnership",
      "outputs": [],
      "stateMutability": "nonpayable",
      "type": "function"
    },
    {
      "inputs": [
        {
          "internalType": "uint256",
          "name": "tokenId",
          "type": "uint256"
        },
        {
          "internalType": "uint256",
          "name": "salePrice",
          "type": "uint256"
        }
      ],
      "name": "royaltyInfo",
      "outputs": [
        {
          "internalType": "address",
          "name": "receiver",
          "type": "address"
        },
        {
          "internalType": "uint256",
          "name": "amount",
          "type": "uint256"
        }
      ],
      "stateMutability": "view",
      "type": "function"
    },
    {
      "inputs": [
        {
          "internalType": "address",
          "name": "from",
          "type": "address"
        },
        {
          "internalType": "address",
          "name": "to",
          "type": "address"
        },
        {
          "internalType": "uint256",
          "name": "tokenId",
          "type": "uint256"
        }
      ],
      "name": "safeTransferFrom",
      "outputs": [],
      "stateMutability": "nonpayable",
      "type": "function"
    },
    {
      "inputs": [
        {
          "internalType": "address",
          "name": "from",
          "type": "address"
        },
        {
          "internalType": "address",
          "name": "to",
          "type": "address"
        },
        {
          "internalType": "uint256",
          "name": "tokenId",
          "type": "uint256"
        },
        {
          "internalType": "bytes",
          "name": "data",
          "type": "bytes"
        }
      ],
      "name": "safeTransferFrom",
      "outputs": [],
      "stateMutability": "nonpayable",
      "type": "function"
    },
    {
      "inputs": [
        {
          "internalType": "address",
          "name": "operator",
          "type": "address"
        },
        {
          "internalType": "bool",
          "name": "approved",
          "type": "bool"
        }
      ],
      "name": "setApprovalForAll",
      "outputs": [],
      "stateMutability": "nonpayable",
      "type": "function"
    },
    {
      "inputs": [
        {
          "internalType": "string",
          "name": "uri",
          "type": "string"
        }
      ],
      "name": "setBaseTokenURI",
      "outputs": [],
      "stateMutability": "nonpayable",
      "type": "function"
    },
    {
      "inputs": [
        {
          "internalType": "address",
          "name": "receiver",
          "type": "address"
        },
        {
          "internalType": "uint96",
          "name": "feeBps",
          "type": "uint96"
        }
      ],
      "name": "setDefaultRoyalty",
      "outputs": [],
      "stateMutability": "nonpayable",
      "type": "function"
    },
    {
      "inputs": [
        {
          "internalType": "bytes4",
          "name": "id",
          "type": "bytes4"
        }
      ],
      "name": "supportsInterface",
      "outputs": [
        {
          "internalType": "bool",
          "name": "",
          "type": "bool"
        }
      ],
      "stateMutability": "view",
      "type": "function"
    },
    {
      "inputs": [],
      "name": "symbol",
      "outputs": [
        {
          "internalType": "string",
          "name": "",
          "type": "string"
        }
      ],
      "stateMutability": "view",
      "type": "function"
    },
    {
      "inputs": [
        {
          "internalType": "uint256",
          "name": "tokenId",
          "type": "uint256"
        }
      ],
      "name": "tokenURI",
      "outputs": [
        {
          "internalType": "string",
          "name": "",
          "type": "string"
        }
      ],
      "stateMutability": "view",
      "type": "function"
    },
    {
      "inputs": [
        {
          "internalType": "address",
          "name": "from",
          "type": "address"
        },
        {
          "internalType": "address",
          "name": "to",
          "type": "address"
        },
        {
          "internalType": "uint256",
          "name": "tokenId",
          "type": "uint256"
        }
      ],
      "name": "transferFrom",
      "outputs": [],
      "stateMutability": "nonpayable",
      "type": "function"
    },
    {
      "inputs": [
        {
          "internalType": "address",
          "name": "newOwner",
          "type": "address"
        }
      ],
      "name": "transferOwnership",
      "outputs": [],
      "stateMutability": "nonpayable",
      "type": "function"
    }
  ],
  "bytecode": "0x608060405234801561001057600080fd5b50604051611fad380380611fad83398101604081905261002f91610248565b338484600061003e838261037a565b50600161004b828261037a565b5050506001600160a01b03811661007d57604051631e4fbdf760e01b8152600060048201526024015b60405180910390fd5b6100868161009a565b5061009182826100ec565b50505050610438565b600980546001600160a01b038381166001600160a01b0319831681179093556040519116919082907f8be0079c531659141344cd1fd0a4f28419497f9722a3daafe3b4186f6b6457e090600090a35050565b6127106001600160601b03821681101561012b57604051636f483d0960e01b81526001600160601b038316600482015260248101829052604401610074565b6001600160a01b03831661015557604051635b6cc80560e11b815260006004820152602401610074565b50604080518082019091526001600160a01b039092168083526001600160601b039091166020909201829052600160a01b90910217600755565b634e487b7160e01b600052604160045260246000fd5b600082601f8301126101b657600080fd5b81516001600160401b038111156101cf576101cf61018f565b604051601f8201601f19908116603f011681016001600160401b03811182821017156101fd576101fd61018f565b60405281815283820160200185101561021557600080fd5b60005b8281101561023457602081860181015183830182015201610218565b506000918101602001919091529392505050565b6000806000806080858703121561025e57600080fd5b84516001600160401b0381111561027457600080fd5b610280878288016101a5565b602087015190955090506001600160401b0381111561029e57600080fd5b6102aa878288016101a5565b604087015190945090506001600160a01b03811681146102c957600080fd5b60608601519092506001600160601b03811681146102e657600080fd5b939692955090935050565b600181811c9082168061030557607f821691505b60208210810361032557634e487b7160e01b600052602260045260246000fd5b50919050565b601f82111561037557806000526020600020601f840160051c810160208510156103525750805b601f840160051c820191505b81811015610372576000815560010161035e565b50505b505050565b81516001600160401b038111156103935761039361018f565b6103a7816103a184546102f1565b8461032b565b6020601f8211600181146103db57600083156103c35750848201515b600019600385901b1c1916600184901b178455610372565b600084815260208120601f198516915b8281101561040b57878501518255602094850194600190920191016103eb565b50848210156104295786840151600019600387901b60f8161c191681555b50505050600190811b01905550565b611b66806104476000396000f3fe608060405234801561001057600080fd5b506004361061014d5760003560e01c806370a08231116100c3578063b88d4fde1161007c578063b88d4fde146102d0578063c87b56dd146102e3578063d0def521146102f6578063d547cfb714610309578063e985e9c514610311578063f2fde38b1461032457600080fd5b806370a0823114610281578063715018a6146102945780638da5cb5b1461029c57806395d89b41146102ad578063a22cb465146102b5578063aa1b103f146102c857600080fd5b806323b872dd1161011557806323b872dd146101e25780632a55205a146101f557806330176e131461022757806342842e0e1461023a57806344e966701461024d5780636352211e1461026e57600080fd5b806301ffc9a71461015257806304634d8d1461017a57806306fdde031461018f578063081812fc146101a4578063095ea7b3146101cf575b600080fd5b610165610160366004611378565b610337565b60405190151581526020015b60405180910390f35b61018d6101883660046113c8565b610348565b005b61019761035e565b604051610171919061144b565b6101b76101b236600461145e565b6103f0565b6040516001600160a01b039091168152602001610171565b61018d6101dd366004611477565b610419565b61018d6101f03660046114a1565b610424565b6102086102033660046114de565b6104b4565b604080516001600160a01b039093168352602083019190915201610171565b61018d610235366004611542565b61053b565b61018d6102483660046114a1565b610555565b61026061025b366004611584565b610570565b604051908152602001610171565b6101b761027c36600461145e565b61062e565b61026061028f3660046115fa565b610639565b61018d610681565b6009546001600160a01b03166101b7565b610197610695565b61018d6102c3366004611615565b6106a4565b61018d6106af565b61018d6102de366004611667565b6106c1565b6101976102f136600461145e565b6106d9565b61026061030436600461174b565b6107ea565b61019761087f565b61016561031f36600461179e565b61090d565b61018d6103323660046115fa565b61093b565b600061034282610979565b92915050565b61035061099e565b61035a82826109cb565b5050565b60606000805461036d906117c8565b80601f0160208091040260200160405190810160405280929190818152602001828054610399906117c8565b80156103e65780601f106103bb576101008083540402835291602001916103e6565b820191906000526020600020905b8154815290600101906020018083116103c957829003601f168201915b5050505050905090565b60006103fb82610a6e565b506000828152600460205260409020546001600160a01b0316610342565b61035a828233610aa7565b6001600160a01b03821661045357604051633250574960e11b8152600060048201526024015b60405180910390fd5b6000610460838333610ab4565b9050836001600160a01b0316816001600160a01b0316146104ae576040516364283d7b60e01b81526001600160a01b038086166004830152602482018490528216604482015260640161044a565b50505050565b600082815260086020526040812080548291906001600160a01b03811690600160a01b90046001600160601b0316816105085750506007546001600160a01b03811690600160a01b90046001600160601b03165b60006127106105206001600160601b03841689611818565b61052a919061182f565b9295509193505050505b9250929050565b61054361099e565b600b610550828483611898565b505050565b610550838383604051806020016040528060008152506106c1565b600061057a61099e565b6000600a6000815461058b90611958565b9182905550905061059c8782610bad565b61061981600b80546105ad906117c8565b1590506105de57600b88886040516020016105ca93929190611971565b604051602081830303815290604052610c12565b87878080601f016020809104026020016040519081016040528093929190818152602001838380828437600092019190915250505050610c12565b610624818585610c62565b9695505050505050565b600061034282610a6e565b60006001600160a01b038216610665576040516322718ad960e21b81526000600482015260240161044a565b506001600160a01b031660009081526003602052604090205490565b61068961099e565b6106936000610d24565b565b60606001805461036d906117c8565b61035a338383610d76565b6106b761099e565b6106936000600755565b6106cc848484610424565b6104ae3385858585610e15565b60606106e482610a6e565b50600082815260066020526040812080546106fe906117c8565b80601f016020809104026020016040519081016040528092919081815260200182805461072a906117c8565b80156107775780601f1061074c57610100808354040283529160200191610777565b820191906000526020600020905b81548152906001019060200180831161075a57829003601f168201915b50505050509050600061079560408051602081019091526000815290565b905080516000036107a7575092915050565b8151156107d95780826040516020016107c19291906119f2565b60405160208183030381529060405292505050919050565b6107e284610f40565b949350505050565b60006107f461099e565b6000600a6000815461080590611958565b918290555090506108168582610bad565b6107e281600b8054610827906117c8565b15905061084457600b86866040516020016105ca93929190611971565b85858080601f016020809104026020016040519081016040528093929190818152602001838380828437600092019190915250505050610c12565b600b805461088c906117c8565b80601f01602080910402602001604051908101604052809291908181526020018280546108b8906117c8565b80156109055780601f106108da57610100808354040283529160200191610905565b820191906000526020600020905b8154815290600101906020018083116108e857829003601f168201915b505050505081565b6001600160a01b03918216600090815260056020908152604080832093909416825291909152205460ff1690565b61094361099e565b6001600160a01b03811661096d57604051631e4fbdf760e01b81526000600482015260240161044a565b61097681610d24565b50565b60006001600160e01b0319821663152a902d60e11b1480610342575061034282610fb5565b6009546001600160a01b031633146106935760405163118cdaa760e01b815233600482015260240161044a565b6127106001600160601b038216811015610a0a57604051636f483d0960e01b81526001600160601b03831660048201526024810182905260440161044a565b6001600160a01b038316610a3457604051635b6cc80560e11b81526000600482015260240161044a565b50604080518082019091526001600160a01b039092168083526001600160601b039091166020909201829052600160a01b90910217600755565b6000818152600260205260408120546001600160a01b03168061034257604051637e27328960e01b81526004810184905260240161044a565b6105508383836001610fda565b6000828152600260205260408120546001600160a01b0390811690831615610ae157610ae18184866110e0565b6001600160a01b03811615610b1f57610afe600085600080610fda565b6001600160a01b038116600090815260036020526040902080546000190190555b6001600160a01b03851615610b4e576001600160a01b0385166000908152600360205260409020805460010190555b60008481526002602052604080822080546001600160a01b0319166001600160a01b0389811691821790925591518793918516917fddf252ad1be2c89b69c2b068fc378daa952ba7f163c4a11628f55a4df523b3ef91a4949350505050565b6001600160a01b038216610bd757604051633250574960e11b81526000600482015260240161044a565b6000610be583836000610ab4565b90506001600160a01b03811615610550576040516339e3563760e11b81526000600482015260240161044a565b6000828152600660205260409020610c2a8282611a21565b506040518281527ff8e1a15aba9398e019f0b49df1a4fde98ee17ae345cb5f6b5e2c27f5033e8ce79060200160405180910390a15050565b6127106001600160601b038216811015610ca85760405163dfd1fc1b60e01b8152600481018590526001600160601b03831660248201526044810182905260640161044a565b6001600160a01b038316610cd957604051634b4f842960e11b8152600481018590526000602482015260440161044a565b506040805180820182526001600160a01b0393841681526001600160601b0392831660208083019182526000968752600890529190942093519051909116600160a01b029116179055565b600980546001600160a01b038381166001600160a01b0319831681179093556040519116919082907f8be0079c531659141344cd1fd0a4f28419497f9722a3daafe3b4186f6b6457e090600090a35050565b6001600160a01b038216610da857604051630b61174360e31b81526001600160a01b038316600482015260240161044a565b6001600160a01b03838116600081815260056020908152604080832094871680845294825291829020805460ff191686151590811790915591519182527f17307eab39ab6107e8899845ad3d59bd9653f200f220920489ca2b5937696c31910160405180910390a3505050565b6001600160a01b0383163b15610f3957604051630a85bd0160e11b81526001600160a01b0384169063150b7a0290610e57908890889087908790600401611ae0565b6020604051808303816000875af1925050508015610e92575060408051601f3d908101601f19168201909252610e8f91810190611b13565b60015b610efb573d808015610ec0576040519150601f19603f3d011682016040523d82523d6000602084013e610ec5565b606091505b508051600003610ef357604051633250574960e11b81526001600160a01b038516600482015260240161044a565b805160208201fd5b6001600160e01b03198116630a85bd0160e11b14610f3757604051633250574960e11b81526001600160a01b038516600482015260240161044a565b505b5050505050565b6060610f4b82610a6e565b506000610f6360408051602081019091526000815290565b90506000815111610f835760405180602001604052806000815250610fae565b80610f8d84611144565b604051602001610f9e9291906119f2565b6040516020818303038152906040525b9392505050565b60006001600160e01b03198216632483248360e11b14806103425750610342826111d7565b8080610fee57506001600160a01b03821615155b156110b0576000610ffe84610a6e565b90506001600160a01b0383161580159061102a5750826001600160a01b0316816001600160a01b031614155b801561103d575061103b818461090d565b155b156110665760405163a9fbf51f60e01b81526001600160a01b038416600482015260240161044a565b81156110ae5783856001600160a01b0316826001600160a01b03167f8c5be1e5ebec7d5bd14f71427d1e84f3dd0314c0f7b2291e5b200ac8c7c3b92560405160405180910390a45b505b5050600090815260046020526040902080546001600160a01b0319166001600160a01b0392909216919091179055565b6110eb838383611227565b610550576001600160a01b03831661111957604051637e27328960e01b81526004810182905260240161044a565b60405163177e802f60e01b81526001600160a01b03831660048201526024810182905260440161044a565b606060006111518361128a565b600101905060008167ffffffffffffffff81111561117157611171611651565b6040519080825280601f01601f19166020018201604052801561119b576020820181803683370190505b5090508181016020015b600019016f181899199a1a9b1b9c1cb0b131b232b360811b600a86061a8153600a85049450846111a557509392505050565b60006001600160e01b031982166380ac58cd60e01b148061120857506001600160e01b03198216635b5e139f60e01b145b8061034257506301ffc9a760e01b6001600160e01b0319831614610342565b60006001600160a01b038316158015906107e25750826001600160a01b0316846001600160a01b031614806112615750611261848461090d565b806107e25750506000908152600460205260409020546001600160a01b03908116911614919050565b60008072184f03e93ff9f4daa797ed6e38ed64bf6a1f0160401b83106112c95772184f03e93ff9f4daa797ed6e38ed64bf6a1f0160401b830492506040015b6d04ee2d6d415b85acef810000000083106112f5576d04ee2d6d415b85acef8100000000830492506020015b662386f26fc10000831061131357662386f26fc10000830492506010015b6305f5e100831061132b576305f5e100830492506008015b612710831061133f57612710830492506004015b60648310611351576064830492506002015b600a83106103425760010192915050565b6001600160e01b03198116811461097657600080fd5b60006020828403121561138a57600080fd5b8135610fae81611362565b80356001600160a01b03811681146113ac57600080fd5b919050565b80356001600160601b03811681146113ac57600080fd5b600080604083850312156113db57600080fd5b6113e483611395565b91506113f2602084016113b1565b90509250929050565b60005b838110156114165781810151838201526020016113fe565b50506000910152565b600081518084526114378160208601602086016113fb565b601f01601f19169290920160200192915050565b602081526000610fae602083018461141f565b60006020828403121561147057600080fd5b5035919050565b6000806040838503121561148a57600080fd5b61149383611395565b946020939093013593505050565b6000806000606084860312156114b657600080fd5b6114bf84611395565b92506114cd60208501611395565b929592945050506040919091013590565b600080604083850312156114f157600080fd5b50508035926020909101359150565b60008083601f84011261151257600080fd5b50813567ffffffffffffffff81111561152a57600080fd5b60208301915083602082850101111561053457600080fd5b6000806020838503121561155557600080fd5b823567ffffffffffffffff81111561156c57600080fd5b61157885828601611500565b90969095509350505050565b60008060008060006080868803121561159c57600080fd5b6115a586611395565b9450602086013567ffffffffffffffff8111156115c157600080fd5b6115cd88828901611500565b90955093506115e0905060408701611395565b91506115ee606087016113b1565b90509295509295909350565b60006020828403121561160c57600080fd5b610fae82611395565b6000806040838503121561162857600080fd5b61163183611395565b91506020830135801515811461164657600080fd5b809150509250929050565b634e487b7160e01b600052604160045260246000fd5b6000806000806080858703121561167d57600080fd5b61168685611395565b935061169460208601611395565b925060408501359150606085013567ffffffffffffffff8111156116b757600080fd5b8501601f810187136116c857600080fd5b803567ffffffffffffffff8111156116e2576116e2611651565b604051601f8201601f19908116603f0116810167ffffffffffffffff8111828210171561171157611711611651565b60405281815282820160200189101561172957600080fd5b8160208401602083013760006020838301015280935050505092959194509250565b60008060006040848603121561176057600080fd5b61176984611395565b9250602084013567ffffffffffffffff81111561178557600080fd5b61179186828701611500565b9497909650939450505050565b600080604083850312156117b157600080fd5b6117ba83611395565b91506113f260208401611395565b600181811c908216806117dc57607f821691505b6020821081036117fc57634e487b7160e01b600052602260045260246000fd5b50919050565b634e487b7160e01b600052601160045260246000fd5b808202811582820484141761034257610342611802565b60008261184c57634e487b7160e01b600052601260045260246000fd5b500490565b601f82111561055057806000526020600020601f840160051c810160208510156118785750805b601f840160051c820191505b81811015610f395760008155600101611884565b67ffffffffffffffff8311156118b0576118b0611651565b6118c4836118be83546117c8565b83611851565b6000601f8411600181146118f857600085156118e05750838201355b600019600387901b1c1916600186901b178355610f39565b600083815260209020601f19861690835b828110156119295786850135825560209485019460019092019101611909565b50868210156119465760001960f88860031b161c19848701351681555b505060018560011b0183555050505050565b60006001820161196a5761196a611802565b5060010190565b600080855461197f816117c8565b60018216801561199657600181146119ab576119db565b60ff19831686528115158202860193506119db565b88600052602060002060005b838110156119d3578154888201526001909101906020016119b7565b505081860193505b505050838582376000930192835250909392505050565b60008351611a048184602088016113fb565b835190830190611a188183602088016113fb565b01949350505050565b815167ffffffffffffffff811115611a3b57611a3b611651565b611a4f81611a4984546117c8565b84611851565b6020601f821160018114611a835760008315611a6b5750848201515b600019600385901b1c1916600184901b178455610f39565b600084815260208120601f198516915b82811015611ab35787850151825560209485019460019092019101611a93565b5084821015611ad15786840151600019600387901b60f8161c191681555b50505050600190811b01905550565b6001600160a01b03858116825284166020820152604081018390526080606082018190526000906106249083018461141f565b600060208284031215611b2557600080fd5b8151610fae8161136256fea26469706673582212209488585ab56e465adcd8402c50f5f711e52d5f7279a812b40a1fb448e15ecdb364736f6c634300081c0033",
  "linkReferences": {},
  "deployedLinkReferences": {}
}